:0200000280007C
:1000000000800820910F0800F1100800F11008008E
:10001000F1100800F1100800F110080000000000C5
:10002000000000000000000000000000F3100800C5
:10003000F110080000000000F7100800FB10080095
:10004000F1100800F1100800F1100800F11008008C
:10005000F1100800F1100800F1100800F11008007C
:10006000E50A0800F110080000000000F110080087
:10007000F1100800F1100800F11008000000000065
:1000800000000000F90A0800050B0800F110080044
:10009000110B0800F1100800F1100800F110080021
:1000A000F110080000000000F1100800F110080035
:1000B000F1100800F1100800F1100800F11008001C
:1000C000F1100800F1100800F1100800F11008000C
:1000D000F1100800F1100800F1100800F1100800FC
:1000E000E1100800F1100800F11008009D0A080056
:1000F000A90A080010B5054C237833B9044B13B195
:100100000448AFF300800123237010BDD4080720FA
:1001100000000000705F080008B5064B1BB10648E0
:100120000649AFF300800648036813B1054B03B1DD
:10013000984708BD00000000705F0800D80807203D
:10014000705F08000000000037B52B4C2B4920469B
:1001500000F080FA2A4800F0E5F8204600F02CF97B
:1001600020464FF0FF3100F003F92046254900F00A
:10017000FCF8204600F0F3F82046002100F0E5F8F6
:10018000204600F0DCF820460021012200F0A6F90C
:1001900020460121032200F0A1F92046022101227C
:1001A00000F09CF920460321012200F097F9204637
:1001B0000421012200F092F920460521012200F0DD
:1001C0008DF920460621012200F088F900252046FD
:1001D0000721032200F082F929462A46009520468D
:1001E0004FF4E06300F084FA074A2046294603B042
:1001F000BDE8304000F082B8D00D072020A10700F4
:10020000F00807207D00CD1F950A0800704780F890
:1002100090240022416080F89C24C0F89424C0F807
:10022000C424C0F8C824C0F8CC24C0F8D024704737
:100230002E4AF0B5136813F0010F2D4B04D12D4C4D
:1002400024681C60012414601A6819234B43541E4F
:100250001C44B4FBF3F3802B46D8CD00AA4243D311
:1002600008234FF0FF371C46B2FBF5F6802E06D868
:1002700005FB1626BE4202D23EB137461C4601336C
:10028000DBB21A2B0D44EFD100E01C4640681A4D3A
:10029000A4F10803062606FB035305684C4325F02A
:1002A000010505609E785D78013E013D36012D0215
:1002B00005F4E06506F070062E43DD78B2FBF4F23B
:1002C000013D05F007052E431D79D2B2013D2D03F6
:1002D000013A05F44055120446EA050302F4FE0211
:1002E000134343610120F0BD0020F0BDC80D07207D
:1002F000CC0D07202C0007205452080007299CBF72
:1003000001F5947140F82120704743681A6842F063
:1003100001021A6090F89004FF2802D0012100F039
:10032000CDBF704743681A6822F001021A6090F846
:100330009004FF2802D0002100F0C0BF704743683E
:100340001A6842F008021A60704743681A6811B1CF
:1003500042F0100201E022F010021A607047436878
:100360001A6822F020021A6070474368596070478B
:100370004368996070474368072928BF072103EB4A
:100380004113D3F81C2242F40002C3F81C22704728
:100390004368072928BF072103EB41110023C1F857
:1003A0000032C1F80432C1F80832C1F81432C1F881
:1003B0001832C1F81C32704738B505460024E1B246
:1003C00028460134FFF7E4FF082CF8D138BDF8B512
:1003D000072928BF072144684B011C44D4F8106248
:1003E000D4F8084206F0C075B5F1C07F0CBF0225F5
:1003F000002514F0005705D024F060441460012457
:10040000947203E0C4F38A44146097724468C6F39C
:1004100003461C4404F5027464685460D672446850
:100420001C44D4F81462D4F818425461166142682E
:100430001344D3F81032DB0148BF45F00405FFF741
:100440009AFF2846F8BD0000072928BF0721406809
:1004500049012BB142F000520144C1F80822704713
:10046000034B920413400144C1F80832704700BFA7
:100470000000FC1F4368072928BF072103EB411137
:10048000D1F8003223F4702343EA0242C1F800227B
:1004900070470000072928BF072110B5406801F107
:1004A0001004490153B142F0005200EB4414626061
:1004B0000144D1F8083243F000530AE0064B92049D
:1004C000134000EB441463600144D1F8083223F078
:1004D0000053C1F8083210BD0000FC1F4368072913
:1004E00028BF072103EB4111D1F80032052A88BF4C
:1004F000002223F0E06343EA0262C1F80022704761
:100500000829D4BF21EAE171082170B504460160D1
:1005100000262568C5F10805AE4217DAF5B2204677
:1005200029460122FFF7DAFF6368072D34BF2A4608
:10053000072203EB42120023C2F808322046294664
:1005400040F2FF72FFF7A6FF0136E2E7072D13DC4A
:10055000EEB2204631460322FFF7C0FF2046314667
:100560000A22FFF787FF2046314640F2FF72002340
:10057000FFF790FF0135E9E770BD000038B504468C
:100580000D460023E21804330021242BC2F8A014E6
:10059000F8D163682B4A934202D12B2000F062FC11
:1005A0006368294A934202D12C2000F05BFC94F846
:1005B0009004FF2807D0012100F0FCFD94F890047E
:1005C000012100F07BFE20462946FFF731FE00287E
:1005D00036D02046FFF7F0FE63684FF0FF329A6096
:1005E00020460121FFF78CFF2046FFF78EFE0023F7
:1005F0001A4612F4001F626805D114498B4202D0DA
:1006000012690133F5E70F49C0208A4214BF2C223A
:100610002B2202F1604202F5614282F80003626817
:100620000B488A4214BF4FF480514FF40061074ACF
:100630004160934203D0C4F89454284638BD00204A
:1006400038BD00BF00400B4000800B40A086010079
:1006500000E100E0FFF792BF072A28BF072210B58C
:1006600002F00304072928BF0721E400032A4FEA08
:100670004111426803FA04F30BD8FF2000FA04F496
:100680000A44D2F8141221EA04042343C2F81432B3
:1006900010BDFF2000FA04F41144D1F8182222EA18
:1006A00004042343C1F8183210BD4368072928BF4A
:1006B000072103EB4113D3F81C12082A28BF082294
:1006C000120402F4702221F470211143C3F81C12A9
:1006D00070474368012003EB4112D2F8102212F454
:1006E000000F03D08840C0B258620020704700005D
:1006F000F8B5072905460C4617469DF818600FD82F
:100700001A463346FFF7C6FE28463A463346214688
:10071000FFF79AFE044B20461A5D6B685A60F8BDDD
:100720004FF0FF30F8BD00BFC05208004368F0B57D
:10073000072934BF0D46072503EB4512D2F81022D6
:1007400087B01102044640F1B48005F11002520155
:100750009A58C2F30262013A032A00F2AA80DFE843
:1007600002F00202510229466A46FFF730FE05F503
:10077000947354F8233013B16846984799E0D4F83D
:10078000C06416B16846B04793E00127AF403346D6
:10079000A219D2F8C40480B14268174204D0036899
:1007A00069461B682A4606E0D20506D503686946F5
:1007B0001B684FF0FF32984701230436102EE7D113
:1007C000002B76D1B4F88864B4F88A34013606F088
:1007D0001F069BB29E426CD0B4F88824182392B2B4
:1007E00003FB02426D4608320DEB03072B4603CB99
:1007F000BB42106051601D4602F10802F6D1A4F818
:10080000886456E0B0F88C14B0F88E2489B292B2A5
:1008100091424AD0B0F88C3418269BB206FB0303F1
:10082000D3F80823B0F88C3429469BB206FB0303A7
:1008300003F544739B78003318BF0123FFF704FED0
:10084000B4F88C3420469BB206FB0343294693F848
:100850001323FFF72AFFB4F88C3420469BB206FB23
:100860000346294696F81123FFF704FE0026B4F844
:100870008C3418229BB202FB03433344F2B293F848
:100880001833204629460136FFF7E6FE082EEED142
:10089000012303FA05F563685D62B4F88C34013313
:1008A00003F00F03A4F88C3403E0012202FA05F5EB
:1008B0009D6007B0F0BD000038B5204C204B626849
:1008C00081040B400546C2F8E83220460721022287
:1008D000FFF7EBFEB5F5007F03D1636840F65C429D
:1008E00020E040F201239D4203D1636840F2F652BA
:1008F00018E040F202239D4206D163684AF6604246
:10090000C3F8F422F02210E040F203239D4203D109
:10091000636840F6057205E0B5F5017F07D16368AD
:1009200040F61732C3F8F4220022C3F8F822034835
:100930000721BDE83840FFF7CCBE00BFD00D07202F
:100940000000FC1F38B5436805461C69E307C0F882
:10095000D44403D500212246FFF7E8FEA10704D5C1
:10096000284601212246FFF7E1FE620704D528460A
:1009700002212246FFF7DAFE230704D52846032189
:100980002246FFF7D3FEE00604D52846042122467E
:10099000FFF7CCFEA10604D5284605212246FFF725
:1009A000C5FE620604D5284606212246FFF7BEFE94
:1009B000230604D5284607212246FFF7B7FEE501A6
:1009C00003D54FF40070FFF777FFA00103D540F285
:1009D0000120FFF771FF610103D540F20220FFF70C
:1009E0006BFF220103D540F20320FFF765FFE30010
:1009F00005D5BDE838404FF40170FFF75DBF38BD45
:100A00002DE9F843224C054689462046C9B22A46BC
:100A1000FFF7DDFC002838D12B696F692E68B9F12A
:100A2000050F6FEA03086FEA070706F1080620467C
:100A3000EA7A13D10721FFF738FE63682046C3F82E
:100A4000F482C3F8F872AB7A07210033324618BF3C
:100A50000123FFF7F9FC2046072112E00121FFF7EF
:100A600024FE63682046C3F83482C3F83872AB7A38
:100A700001210033324618BF0123FFF7E5FC204671
:100A80000121BDE8F843FFF724BEBDE8F88300BFAD
:100A9000D00D07200021FFF7B3BF00000148FFF78A
:100AA00051BF00BFF00807200148FFF74BBF00BF50
:100AB000D00D072008B5064932220648FFF7A7FBEC
:100AC000BDE80840044805493022FFF7A0BB00BF3D
:100AD00000400B40F0080720D00D072000800B409D
:100AE00070470000014800F05BBD00BFB81307204D
:100AF0007047704770470000014800F051BD00BFCB
:100B000064140720014800F04BBD00BF8C1407207F
:100B1000014800F045BD00BFB41407202DE9F041A5
:100B20003F4D00F0F1F92B684FF47A72B3FBF2F30A
:100B30005A1E3C4BF0215A603B4A002482F8231095
:100B400007229C601A6001F031FCA8462046002173
:100B5000013400F0B3FB4F2CF8D1344C344E354FF8
:100B6000354B4FF0FF35C4F8A0504FF44072C6F833
:100B7000A0502046C3F8A05001210023C7F8A05080
:100B800000F02AF90020012100F098FB2046012105
:100B90004FF44062002300F01FF9204601214FF47A
:100BA0004052002300F018F9384602213022002379
:100BB00000F012F9304601214FF44062002300F0AA
:100BC0000BF9204601210322002300F005F9012141
:100BD0004FF440420023304600F0FEF8252000F09C
:100BE00041F9D8F80010154A0C23154800F00CFA0A
:100BF0000123134800214FF4401200F058FA00215D
:100C00000A460F4800F04CFA29460D4800F065FAF4
:100C10000B4800F05EFABDE8F04100F0C9BA00BF31
:100C20002C00072010E000E000ED00E0000E0E4078
:100C300000100E4000140E4000120E40002D310135
:100C400000000C402DE9F743234D244C284600F0CA
:100C5000BBFB204600F0B8FBDFF8B4900822134637
:100C60001F49009501941F4F1F4800F04BFC1F4D7A
:100C7000484600F0A9FBDFF89C80384600F0A4FB52
:100C80001B4E284600F0A0FB1A4C404600F09CFB8F
:100C9000304600F099FB204600F096FB11221346E7
:100CA000CDF80090CDF804801349144800F0AAFC58
:100CB00012221346009701961149124800F0A2FC37
:100CC00014220095019410491346104800F09AFC34
:100CD00003B0BDE8F08300BFDC130720301307200A
:100CE00000080E40C4160720B81307204C17072031
:100CF000DC140720641507200080094064140720D5
:100D000000C009408C14072000400A40B41407209A
:100D10003C160720A812072008B50C4800F072FB0B
:100D200008B1FFF7DDFE0A4800F06CFB08B1FFF7E1
:100D3000DFFE084800F066FB08B1FFF7DAFE064860
:100D400000F060FB08B1FFF7D5FE08BDB81307201F
:100D5000641407208C140720B41407200AB14166DC
:100D6000704701667047426405290DD8DFE801F03D
:100D70000D03090D0D0D036F016F0B4023EA0203F4
:100D800001E0036F1343036742607047D307416478
:100D90004CBF4166016612F00A0F14BF0162416246
:100DA000930701D4130701D5C0F880104161016099
:100DB000704710B5029C41640CB1416600E00166C9
:100DC0000BB1016500E041650AB1016300E04163D8
:100DD0000161016010BD0000F7B51E464B1E0546BF
:100DE0000F461446042B1FD8DFE803F003030C1250
:100DF000120022460E4B9847F2076C644CBF6C669B
:100E00002C6603E0214632460A4B984701200CE04D
:100E100006F0010300937B1F5A4221465A41064CBB
:100E2000C6F38003A047F1E7002003B0F0BD00BF88
:100E3000670D08008D0D0800B30D0800034680689B
:100E4000084004D09B6919420CBF00200120704764
:100E5000034B4FF44412DA619A6E5206FCD5704788
:100E600000060E402C2819D81F280E4B4FF0010207
:100E700008D802FA00F0996900EA010282420FD014
:100E800018610DE0203802FA00F0D3F8081100EAEA
:100E90000102824204D0C3F8000101E00120704742
:100EA0000020704700060E402C2817D81F280D4B35
:100EB0004FF0010107D801FA00F09A69024082421E
:100EC0000ED15A610CE0203801FA00F0D3F8082165
:100ED0000240824204D1C3F8042101E0012070479E
:100EE0000020704700060E40000200F47062024BC2
:100EF00042F001029A63704700060E40014B202227
:100F00001A60704700060E401A4A4FF4806313605F
:100F1000C2F80032184B1A6AD20102D5174A1A6277
:100F200005E0174A1A629A6ED007FCD5F6E7996E6B
:100F3000114AC903FBD5116B21F0030141F00101F6
:100F400011639A6E1207FCD50E490B4A91629A6E94
:100F50009007FCD5084A112111639A6E1107FCD540
:100F6000054A122111639A6E1207FCD5064A074BF7
:100F70001A607047000A0E4000060E40090837014B
:100F800009083700013F0D2000BD01052C00072096
:100F9000154B164A10B593421C4601D0002301E0C0
:100FA000134B07E01349D0188842F9D2E158D150C9
:100FB0000433F7E7104A934203D2002243F8042B8C
:100FC000F8E70E490E4B21F0604201F1604122F03A
:100FD0007F02B1F5801F9A6003D29A6842F00052F6
:100FE0009A60084B9847FEE7705F080000000720F2
:100FF000D4080720D4080720B41A072000000800EE
:1010000000ED00E0311308002DE9F041224D90B0D1
:101010006C4606460F4690469C460FCD0FC40FCD3A
:101020000FC40FCD0FC495E80F0084E80F00012313
:10103000336000214FEA480240F202237160C6F893
:101040002031C6F80411C6F81411B7FBF2F102FB07
:10105000117202B901394B1C5B00B7FBF3F70F4B60
:101060000022B7FBF3F70CFB07FC5DF8220060459C
:1010700005D20132102AF8D14FF0FF3009E0736831
:10108000090289B21204194302F470220A43726001
:10109000002010B0BDE8F081F45C080040420F0071
:1010A0004368D2011943D3B219434160704710B568
:1010B0004468090622431B0701F07064224303F0D1
:1010C00040531A43426010BD012303FA01F141610C
:1010D00070474FF6FF7343617047816270470000AD
:1010E00008B5024B1B6803B1984708BDD417072009
:1010F000FEE700F010B800F00EB808B500F009F8EF
:1011000028B900F051F9BDE8084000F06BBF08BDF8
:10111000704700207047FEE7044B1A680AB9044A7A
:101120001A601A681044186010467047D8170720D4
:10113000B41A07204FF0FF3070474FF0FF30704770
:101140004FF400534B60002070470120704700208F
:10115000704700207047000010B50023934207DA63
:1011600005484469A407FBD5CC5C0133C461F5E7AD
:1011700022EAE27010BD00BF00080E40014608B52B
:10118000014801F03BF9FEE7345D080070474FF07D
:10119000FF30704738B5044648B100F02BFF0546D4
:1011A000FFF7B6FF00F026FF401BA042F8D338BD82
:1011B000704700002DE9F0413D4E1C2303FB006306
:1011C0001A7B04460F46002A70D03A4D2A5C02F082
:1011D0000F02042A03D13848597EFFF775FF2A5DB4
:1011E00002F00F03022B11DC82B1022B02D16FB986
:1011F000BDE8F081012B03D1022F07D1BDE8F081BA
:10120000032B03D1012F03D1BDE8F081012F32D090
:101210001FB1022F17D0BDE8F0814FF01C0808FB6A
:1012200004F806EB0807B868FFF71CFE002356F821
:10123000080003217A68FFF7CFFD2B5D23F00F0331
:1012400043F0020314E04FF01C0808FB04F806EB1F
:101250000807B868FFF706FE012356F808000321C7
:101260007A68FFF7B9FD2B5D23F00F0343F001030C
:101270002B55BDE8F0811C236343F75812091E4427
:101280000CBF04210521336938467268FFF7A4FDBD
:101290002B5D23F00F0343F003032B55BB69013390
:1012A00004D1B068BDE8F041FFF7FEBDBDE8F081B4
:1012B000C8520800EC15072000000C40F7B5194E85
:1012C0001C2303FB00631B7B04460D4643B3164FF0
:1012D0003B5C03F00F03052B02D10121FFF76AFFEE
:1012E0003B5D03F00F0343EA05133B551C235C43AE
:1012F000331936595C6830462146FFF79FFD38B9EF
:10130000304621462A4603B0BDE8F040FFF726BD2F
:1013100001230093304621462A460023FFF749FD6A
:1013200003B0F0BDC8520800EC150720704700005C
:1013300008B500F079F9FFF7F1FBFFF7F7FF01209F
:10134000FFF728FF064800F0BFFAFEF7FDFEFEF7A4
:101350005DFF044B002BFAD0FFF7DEFCF7E700BF80
:10136000EC170720190D0800F8B505460E4617467C
:101370000024BC4207D02B6828461B68315D984783
:1013800008B10134F5E72046F8BD0000014B1860B4
:10139000704700BF30000720024B4FF0FF321A6049
:1013A000704700BF30000720054A08B51368591C74
:1013B00004D0013B13600BB9024B984708BD00BF36
:1013C000300007200100072010B5002180220446CC
:1013D00001F028F80023C4F880302046C4F8843097
:1013E00010BDD0F88030D0F88420013303F07F03A3
:1013F000934204D0D0F880208154C0F880307047E8
:10140000012070470369D3F88000D3F88430C01AF4
:1014100000F07F0070470369D3F88010D3F8842070
:1014200091421DBFD3F88420985CC0B24FF0FF30CA
:1014300070470369D3F88010D3F8842091420AD012
:10144000D3F88420985CD3F88420013202F07F0224
:10145000C3F8842070474FF0FF3070474369D3F8DA
:101460008010D3F884209142F9D1826953699B0599
:10147000FCD57047836970B55E694269B607D2F8DA
:101480008450D2F8804001D5A54218D0D2F88040CF
:101490000C4B01342340002B03DA013B63F07F0344
:1014A0000133D2F884409C42FBD0D2F880401155E1
:1014B0004269C2F88030836902229A6000E0D961F3
:1014C000012070BD7F000080036910B5D3F884202F
:1014D0000446C3F8802003685B699847237F012294
:1014E00059B203F01F0302FA03F34909044A2031F9
:1014F00042F82130206ABDE81040FFF7D5BC00BF9C
:1015000000E100E030B5002545604FF47A75856054
:10151000044D81610560039D02770561049D0362AE
:10152000456130BD585D080070B50446006A0D463F
:101530001646FFF797FCA36940F20222C3F8202168
:10154000AC221A60124A5E6012680121B2FBF5F506
:101550002D094FF0FF321D62DA6061229A60227F0E
:1015600050B202F01F0201FA02F20A49400941F8A2
:10157000202021690022C1F88420C1F880206169FF
:10158000C1F88420C1F8802050221A6070BD00BFCD
:101590002C00072000E100E04FF40062FFF7C4BF19
:1015A00038B5836904465D69EA0704D5996900691D
:1015B000C9B2FFF716FFAB0716D56369D3F88410DD
:1015C000D3F880209142A2690CD0D3F88410595CE2
:1015D000C9B2D161D3F88420013202F07F02C3F88E
:1015E000842001E00223D36015F0600F04D0A369CA
:1015F0001A6842F480721A6038BD4FF40C62FFF72B
:1016000093BF000073B5069D04460095079D0E46E6
:101610000195FFF777FF034B20462360666202B017
:1016200070BD00BF885D0800014800F0E9BC00BF44
:10163000501A0E40064BD3F83021D20703D45B6812
:10164000D90703D4F6E70122C3F86021704700BF31
:1016500000C00A4038B5094B1D6872B6BFF35F8FF2
:101660001C4600F00F000023236000F05DFE25B152
:1016700001232360BFF35F8F62B638BD6800072087
:101680002DE9F8431B4B89461B6815463BB31A4BA3
:10169000D3F8008072B6BFF35F8F00F00F0400260E
:1016A00020461F461E6000F03FFEA84238BF054698
:1016B000AE4206D0204600F0FFFD09F806000136D4
:1016C000F6E71DB1204600F02FFE78B1B8F1000F0B
:1016D00009D001233B60BFF35F8F62B603E04FF098
:1016E000FF30BDE8F8832846BDE8F883204600F0C7
:1016F00025FEEBE7F81707206800072007B5012251
:101700000DF1070100F00F00FFF7BAFF01280CBF31
:101710009DF807004FF0FF3003B05DF804FB0000B8
:10172000114B2DE9F0411B6880460D461746B3B1B9
:1017300014468CB1B8F1000F14BF4FF40076402668
:10174000A64228BF2646294608F00F003246A41BB1
:1017500000F05CFD3544ECE73846BDE8F0814FF021
:10176000FF30BDE8F08100BFF81707202DE9F041F8
:101770000C4B0D4F15461B883A8888469A420BD26F
:101780002C46002644B108EB06012246002000F05A
:101790003DFD0644241AF5E73B8828462B443B8050
:1017A000BDE8F081F4170720DC170720F8B5012900
:1017B00000AF06460C4628DDCB1D23F00703ADEB3A
:1017C000030D00F079FE0130400003238DF8000086
:1017D0006D468DF80130701E0222A2420DDA10F81B
:1017E000013F53B1511CC9B2A142AB5404D00023F4
:1017F00002326B54D2B2F0E7224600202946FFF7AE
:10180000B5FF003018BF012000E00020BD46F8BD44
:1018100038B50C46054600F0C9FC00202946224692
:1018200000F05EFD00F0D6FC204638BD037910B50F
:1018300004461BB9BDE8104000F036BB00F0BEFB0B
:101840002146BDE8104000F0A9BB13B5002302AC4F
:1018500004F8013D204600F013FB00F0AFFB2146E9
:1018600000F06CFB9DF8070002B010BD13B500231B
:1018700002AC04F8013D204600F00CFB00F09EFB9A
:10188000214600F05BFB9DF8070002B010BD10B5CB
:10189000044600F049FD20B12046BDE8104000F0AC
:1018A00061BD10BD10B50446054800F0ADFB00F069
:1018B000B1FB10B9034B01221A60204610BD00BFD6
:1018C000F5180800E817072008B5054B186828B177
:1018D00000F008FC034B00221A60012008BD00BF85
:1018E000E8170720F81707200148FFF7DBBF00BF04
:1018F000EC1707202DE9F047AC4C88B063681F0750
:1019000017D52368002023F07F032360236842F269
:10191000320143F08003236000F00CFCA44B04224E
:101920001A604FF48053A361A24B00221A6008236F
:10193000A3609E4B5B685E0408D59F4B0220186035
:10194000FFF788FE10B19D4800F04CFA974B5A689B
:10195000550744BF04229A605B68DC0440F1E281D1
:1019600000F044FC002800F0DD81002001A90822DD
:1019700000F0B6FC00F042FC9DF80450280602D5A9
:1019800000F00CFC01E000F019FC15F0600440F0E0
:10199000B4819DF8053073B99DF80440ACB1884B13
:1019A0001B780020012B14BF0146012100F072FCBE
:1019B0000020014697E1012B0DD19DF80630012B47
:1019C00001D1804BECE77E4B1C702046214600F095
:1019D00061FC2046EDE7032B75D19DF80630012B05
:1019E00005D1784A20462146137000F053FC9DF83B
:1019F000060028B9724B012201461A7000F04AFC19
:101A00009DF80630022B40F085819DF80430002BB4
:101A100040F08081BDF80830190740F07B81634CAD
:101A20001B0A6269013B22F001026261226842F4F2
:101A300000622260032B00F26D81DFE803F0313891
:101A40003F02FFF7F7FD0023C4F81833C4F828332A
:101A500041F23013C4F80831D4F8083143F00203DE
:101A6000C4F80831514BD3F838215203FAD5DA695A
:101A700042F00402DA61544B544A9A5C03F8012F95
:101A8000534A9342F8D1494B1A6842F400421A6013
:101A90000122C3F868214FF48042C3F82822FEE7F0
:101AA000FFF7C8FD236843F400532360FEE7FFF708
:101AB000C1FD236843F480432360FEE7FFF7BAFDCE
:101AC000444B6361FEE7052B06D100F067FB9DF8F0
:101AD000060000F05BFC1DE1062B40F0DC809DF869
:101AE00007603D4D022EBDF80A903C4F2C8028D156
:101AF0003C80FFF7AAFE4FF0090882462146424685
:101B000003A800F08FFC01238DF81130C0238DF85D
:101B10001330FA238DF814302B8803A9434442462E
:101B20002046ADF80E308DF80C808DF80D608DF8E4
:101B300010A02C80A7F80090FFF718FEFFF785FE95
:101B4000E8E0A7F8009000F039FA01A900F00AFADD
:101B5000002803D0D4BF00200120DAE0012E10D1EC
:101B6000BDF80A201E4B082A04BF0121196018681D
:101B70001C491D4B002808BF1946112A00F2868017
:101B800048E0032E48D19DF8063033B91749BDF817
:101B90000A200B7893423DD878E0022B01D11448FB
:101BA00033E0012B28D113482FE000BF00C00A40CA
:101BB000F0C10A40F817072068C10A40081A072038
:101BC000DE170720E4170720FFFF1820D35DEFDFA3
:101BD000340019207FF0077EDC170720F417072058
:101BE000E0170720135E0800BC5D0800CE5D08000A
:101BF000B05D0800075E0800032B40F08E8000F007
:101C0000DDF903A900F0BCF903A8BDF80A10FFF73D
:101C1000CDFD7EE0D2B238E0062E06D1BDF80A2016
:101C2000092A7DD8D2B241492FE0072E4FF0000497
:101C300073D1BDF80A902C803C80FFF717FE4FF05F
:101C4000090882462146424603A800F0EBFB012327
:101C50008DF81130C0238DF81330FA238DF814302D
:101C60002B8803A9434442462046ADF80E308DF838
:101C70000C808DF80D608DF810A02C80A7F80090D6
:101C8000FFF774FDFFF7F2FD44E002B90A78002087
:101C9000FFF76CFD3EE0072B3FD0082B04D1244B0F
:101CA00020461968C9B21EE0092B17D1EB0634D1C2
:101CB0000021204850F821300BB10131F9E700F044
:101CC0004FFA9DF806201A4B1A601B4B02221A602D
:101CD0004FF48042A3F5FC739A611BE00A2B05D1F7
:101CE000164B0020197800F0D5FA13E00B2B11D118
:101CF0009DF80620114B1A600CE000F04FFA104BD3
:101D000000211980BDF80A200E4B01A81A80FFF7A8
:101D10008DFD10B100F052FA04E000F0FBFA01E092
:101D20000249B3E708B0BDE8F08700BF255E0800B0
:101D3000F817072034000720F8C10A40F0170720E1
:101D4000DC170720F4170720044BD3F80002D3F860
:101D50000432C01AC0F30800704700BFFC17072008
:101D6000064BD3F80012D3F8042291421ABFD3F8DD
:101D70000422985C4FF0FF30704700BFFC1707202B
:101D800013B5026802AB03F8011D5468194601221D
:101D9000A04702B010BD000038B50F4B0446D3F881
:101DA0000012D3F80422914213D0D3F80422022067
:101DB0009D5CD3F804220132C2F30802C3F8042266
:101DC000FFF748FC18B1236820469B6998472846CE
:101DD00038BD4FF0FF3038BDFC1707200320FFF758
:101DE00056BD0000F8B5184B53E8003F164E13B12E
:101DF000BFF32F8FF8BD012346E80033002BF2D14B
:101E0000124BD3F800421F460134C4F30804D7F83C
:101E100004320E4D9C4214D00220FFF71BFC20B967
:101E20000B4B4FF480421A600BE00220FFF766FC78
:101E3000D5F80032C5F800420134E854C4F3080470
:101E4000E5E700233360F8BD041A0720FC170720DC
:101E500028C20A4010B5094B0446DB7903F0FF00A5
:101E600043B10320FFF75CFC002805DC012363601D
:101E7000002010BD0123636010BD00BF600007207B
:101E8000037803490233037042220020FFF76EBC3F
:101E90009A5E08000378034902330370422200204F
:101EA000FFF764BC585E080008B502784378A12AA1
:101EB00008D1212B4FF0000029D117490722FFF745
:101EC00055FC25E0212A25D1202B04D107211248D9
:101ED000FFF79EFC1CE0222B10D182780E4BDA71AA
:101EE0001A68B2F5966F13D1DB79DB0703D4FA20B9
:101EF000FFF74CFA0CE0FFF74FFA09E0232B09D16A
:101F00008378C27843EA0222044B1A6000E008BDDD
:101F1000012008BD002008BD600007205C000720EC
:101F2000044B00225A604FF47A729A60024A1A6097
:101F3000704700BF081A0720385E080070B5446873
:101F40000E4600254CB1236820465B683146984711
:101F5000002804DB0544E468F4E7284670BD4FF030
:101F6000FF3070BD38B544680D463CB1236820464B
:101F70009B682946984710B9E468F6E7204638BDC3
:101F800038B544680D463CB1236820462946DB68D5
:101F90009847E4680544F6E72C7038BD38B54468C6
:101FA0000D463CB1236820461B682946984718B95E
:101FB000E468F6E7204638BD012038BD074A1368BB
:101FC00013F0010107D1064B02201870042058704D
:101FD0005960012313600248704700BF241A07208C
:101FE0001C1A0720024B1A6801321A60704700BFA2
:101FF000281A0720014B1868704700BF281A0720CD
:102000004FF4004343607047014B1860704700BFB6
:10201000D417072010B500232A4A002442F8234091
:10202000294A42F8234001330A2BF5D1274B2820B7
:102030009847274B98472046264B9847264B98476A
:10204000264B4FF4807283F828435A60244B204675
:10205000D3F8002822F08072C3F80028D3F80028B3
:1020600042F00072C3F80028D3F8002822F08072F2
:10207000C3F80028D3F8002822F48052C3F80028BF
:10208000D3F8002842F48052C3F80028D3F800287F
:1020900042F40042C3F80028D3F8002822F480421A
:1020A000C3F800281A6822F480521A601A6822F4D1
:1020B00040621A60D3F8002842F48042C3F8002836
:1020C00010BD00BF541A07202C1A0720650E080007
:1020D000510E0800E90E0800FD0E080000E100E0C6
:1020E00000C00A40114B10B5196872B6BFF35F8F7C
:1020F0001A46002313600E4BD3F800081C4620F448
:102100008040C3F80008D4F80408094B4004FAD50D
:10211000186820F4807018600820986121B10123AC
:102120001360BFF35F8F62B610BD00BF6800072069
:1021300000C00A40094B00F00F0000F1400243F8D4
:10214000221001228240D9690A43DA6103F59873AB
:1021500053F820305B0300D4FEE7704700C00A400C
:1021600030B501238B4214D20A4A50F8045F03F1C0
:10217000400442F8245001249C40D5692C43D4618A
:10218000054A1A4492001268520300D4FEE7013354
:10219000E8E730BD00C00A404CB00210024BD3F853
:1021A0003031DB07FAD5704700C00A40024BD3F844
:1021B00030319B07FAD5704700C00A40034B01221B
:1021C000C3F86021024B00221A60704700C00A4029
:1021D000541A0720034B0222C3F86021024B00224D
:1021E0001A60704700C00A402C1A0720024BD3F82F
:1021F000300100F00400704700C00A40024B042286
:10220000C3F86021704700BF00C00A40F8B515460A
:10221000C20302F10052034602F5C012980000F119
:10222000804000F52C24D4F83041E407F6D5174C53
:102230003BB926682E44402E06D92568C5F14005D5
:1022400002E0002644F8236054F82360164400227C
:10225000AA4203D08F5CB7540132F9E754F8232027
:102260002A4444F8232033B9084B1B68402B0BD178
:10227000074B984708E000F52C230122C3F86021A2
:102280004FF48042C3F820222846F8BD541A072094
:10229000BD210800074B53F8202002EBC03202F1A9
:1022A000005202F5C012117053F82020013243F899
:1022B00020207047541A0720084A034652F820107D
:1022C00001EBC03101F1005101F5C011087852F85D
:1022D0002310013142F82310704700BF2C1A072049
:1022E00070B50B4CC30303F1005354F8205003F5B1
:1022F000C0131D440023934203D0EE5CCE5401333F
:10230000F9E754F82020134444F8203070BD00BF92
:102310002C1A0720034B0122DA614FF40022C3F884
:10232000F021704700C00A40034B4C3053F82000A6
:10233000C0F30A50704700BF00C00A40830003F199
:10234000804303F52C230222C3F860214FF480421E
:10235000C3F82022024B002243F82020704700BF20
:102360002C1A0720830003F1804303F52C2301225C
:10237000C3F860214FF48042C3F82022024B0022B0
:1023800043F82020704700BF541A0720064B00F086
:102390007F001A6822F07F0202431A601A6842F036
:1023A00080021A60704700BF00C00A4070B50F4E2F
:1023B0000F4D761BB61007D0043D0024013455F8AC
:1023C000043F9847A642F9D10A4E0B4D03F0B2FDE7
:1023D000761BB61008D0043D0024013455F8043FA4
:1023E0009847A642F9D170BD70BD00BF405F08009C
:1023F000405F0800585F0800405F08000FB410B548
:10240000074B82B004AC54F8042B1868234681684B
:10241000019400F0C5F802B0BDE8104004B0704768
:1024200098040720F0B4840743D0541E002A3ED0FD
:10243000CDB2034603E0621E002C38D0144603F8E8
:10244000015B9A07F7D1032C2AD9CDB245EA0525BD
:102450000F2C45EA054515D9A4F110073F0903F1F2
:10246000100606EB07161A46156055609560D56094
:102470001032B242F8D104F00F040137032C03EB01
:1024800007130DD91E462246043A032A46F8045B78
:10249000FAD8221F22F003020432134404F003048A
:1024A0002CB1C9B21C4403F8011BA342FBD1F0BC00
:1024B000704714460346C6E720F0030110F00300FE
:1024C000C0F1000051F8043B00F1040C4FEACC0CC1
:1024D0006FF000021CBF22FA0CF213434FF0010C04
:1024E0004CEA0C2C4CEA0C4CA3EB0C0222EA030243
:1024F00012EACC1204BF51F8043B0430F4D013F0BC
:10250000FF0F1FBF013013F47F4F013013F47F0F13
:1025100018BF0130704700BF024B0A4601461868D9
:1025200002F0C8B9980407204B6E2DE9F0479C04CF
:102530000E46804691462AD59368126802F1080A31
:102540001BB31AE9A000BF0817D0043D002401E026
:10255000A74210D0404655F8041F324601F050F80B
:10256000431C04F10104F3D10023C9F80830C9F871
:102570000430BDE8F087D9F80830A3EB8703C9F829
:1025800008300AF1080A002BDBD10020ECE701F04B
:10259000B1F90023C9F80830C9F80430BDE8F08764
:1025A0002DE9F04FB1B01C46029190460893069079
:1025B00018B1836B002B00F0E880029DAB899AB2C2
:1025C000900407D46A6E43F4005322F40051AB81A7
:1025D0009AB26966110740F1B780DDF808B0DBF800
:1025E0001030002B00F0B08002F01A020A2A00F02E
:1025F000B78000230DF180090A9315931493099372
:10260000CDF84C904E4698F80030002B00F0C8846E
:10261000252B00F0C58408F1010201E0252B04D030
:10262000137814460132002BF8D1C8EB040595B19C
:10263000149B159A01332A44072BC6F80080756055
:10264000159214937BDD002A40F0D58409981492EA
:1026500028444E4609902378002B00F0ED8300219A
:102660004FF000024FF0FF3C63788DF84720049153
:102670008A4604F101080846654608F10108A3F1FD
:102680002002582A00F2D982DFE812F0CB02D702EA
:10269000D702D202D702D702D702D702D702D70277
:1026A00082028F02D70284009302D7022B01960187
:1026B0009601960196019601960196019601960162
:1026C000D702D702D702D702D702D702D702D70242
:1026D000D702D7023001D702D702D702D702D702DA
:1026E000D702D702D702D702D7027B01D702D7027F
:1026F000D702D702D702A401D702D702BF01D7025F
:10270000D702D702D702D702D702D702D702D70201
:10271000D702E401FA01D702D702D7021602FA0162
:10272000D702D7021B02D7022802890066027D0267
:10273000D7023A02D7021901D702D702AF020836F0
:1027400009982844099086E70698029900F090FDC0
:10275000B0B9029DAA8902F01A020A2A7FF449AF91
:10276000DDF808B0BBF90E30002BFFF642AF06983B
:1027700059464246234600F03DFD31B0BDE8F08F9A
:102780004FF0FF3031B0BDE8F08F00F0A3FE14E74A
:10279000404208934AF0040A98F800306DE71AF0B6
:1027A00020030490AC4600F0F480DDF820B00BF17B
:1027B000070323F0070303F108040894D3E9004555
:1027C00000234FF0000000218DF84700CDF814C021
:1027D0000791BCF1000FA8BF2AF0800A54EA050255
:1027E00040F0AD80BCF1000F40F0A980002B40F01C
:1027F000C0831AF0010F00F0BC83302330AF07F81C
:10280000413DC7EB09040594DDF814B0079CE3458E
:10281000B8BFE346CDF80CB01CB10BF1010BCDF8FD
:102820000CB01AF00205079505D0DDF80CB00BF1DD
:10283000020BCDF80CB01AF084030B9340F01B820E
:10284000049DDDF80CB0CBEB0504002C40F31382A3
:10285000102C40F38984BE4D159A2B4614982546BA
:102860004FF0100B6446B4461E4606E0831C0CF184
:10287000080C0846103D102D11DD411C10320729AF
:1028800015928CE840081491F0DD002A40F0E681B2
:10289000103D102D4FF001031046CC46EDDC3146C3
:1028A0006646A4462C460D462244072B15923560F9
:1028B0007460149300F36D830836591CDEE11AF03E
:1028C000200F0490AC4600F08D80089DEB1D23F096
:1028D000070303F1080BD3E90045CDF820B001232D
:1028E0006FE74AF0800A98F80030C6E64AF0100A0E
:1028F0001AF0200F0490AC468DF8471000F0C88005
:10290000089CE11D21F00701D1E90023083108915D
:1029100014461D46002A73F1000BC0F2CE83BCF1B1
:10292000000F9DF84700A8BF2AF0800A54EA05026C
:102930000790CDF814C04FF001033FF453AF012BC3
:1029400000F01983022B0DF17F0340F04C82DDF87B
:1029500028B0194604F00F0022091BF8000042EAD3
:1029600005722B09087052EA03000F4614461D46F3
:1029700001F1FF31EED1CDE90E23C7EB0903059339
:1029800042E74AF0100A1AF020030490AC467FF4A4
:102990000CAF1AF0100240F011831AF0400300F05F
:1029A0000D83DDF820B01346BBF800400BF1040B9B
:1029B0000025CDF820B004E7A3F13002002018F87C
:1029C000013B00EB800002EB4000A3F13002092A3A
:1029D000F5D954E64AF0100A1AF0200F0490AC46DC
:1029E0007FF473AF1AF0100F40F0EF821AF0400F2F
:1029F00000F0EB82DDF820B00025BBF800400BF1C1
:102A0000040B0123CDF820B0DBE6AC46514D1AF0A3
:102A1000200F04908DF847100A9500F0F080089D73
:102A2000EA1D22F0070202F1080BCDF820B0D2E92E
:102A300000451AF0010F00F0AA8254EA050B00F0DD
:102A4000A68230228DF849304AF0020A8DF84820DB
:102A50000223B6E6089BDDF820B01B6801244FF086
:102A600000050BF1040B049003948DF847508DF88A
:102A70005830CDF820B0059416AF4FF0000CD0E6DA
:102A80001AF0200F0490AC468DF847107FF438AF51
:102A90001AF0100F40F0A7821AF0400F00F0A38246
:102AA000DDF820B0BBF900400BF1040BE51722461E
:102AB0002B46CDF820B02DE74AF0400A98F80030B8
:102AC000DBE598F8003042466C2B03BF08F10108A3
:102AD0004AF0200A53784AF0100ACEE51AF0200F87
:102AE0008DF8471000F0F782089C2168099CE517D3
:102AF0002B46089D224604350895C1E9002382E54E
:102B0000089CAC4627684FF0000504908DF84750AC
:102B10000434002F00F03283BCF1000F3846C0F2BD
:102B2000078362460021CDF804C001F0A7FBDDF861
:102B300004C0002800F03A83C01B9DF84750604550
:102B4000A8BF60460590089407954FF0000C5BE61F
:102B5000E45E0800F45E0800089BDDF820B00490F5
:102B6000B2481C68302278230BF1040BAC468DF878
:102B700049304AF0020ACDF820B000258DF84820EF
:102B80000A9002231DE64AF0200A98F8003074E506
:102B9000DDF820B0DBF800000BF104030028FFF69D
:102BA000F7AD089398F8003067E598F800302B21CE
:102BB00063E598F8003008F101042A2B00F0058342
:102BC000A3F13002092A98BF002500F2FA8214F816
:102BD000013B05EB850502EB4505A3F13002092A0F
:102BE000F5D945EAE575A04649E5904C1AF0200F65
:102BF0000490AC460A948DF847107FF410AF1AF099
:102C0000100F40F0EA811AF0400F00F0E681DDF885
:102C100020B00025BBF800400BF1040BCDF820B02C
:102C200007E798F8003000297FF427AD202124E53C
:102C30004AF0010A98F800301FE504908DF847101B
:102C4000002B00F0F98001254FF0000B03958DF863
:102C500058308DF847B0059516AF0EE706980299E3
:102C600013AAFFF761FC002840F0ED801498159A34
:102C7000431CCC46FEE5149B159A591C9DF8470051
:102C800068B101320DF14700012307291592149113
:102C900086E8090000F360810B4608360131079C85
:102CA00064B1023212A8022307291592149186E812
:102CB000090000F357810B46083601310B9D802D2A
:102CC00000F00181059DC5EB0C04002C2FDD102CBC
:102CD000574D22DD30464FF0100B2E462546069C00
:102CE00006E003F1020C08300B46103D102D10DDFC
:102CF000591C10320729159280E840081491F0DD24
:102D0000002A63D1103D102D4FF0010C13464846A8
:102D1000EEDC2C46614635460646224407291592CC
:102D200035607460149100F3C18008360131059D4F
:102D300007292A44159237607560149140F3C180C9
:102D4000002A40F0308114924E461AF0040F00F031
:102D50008B80049DDDF80CB0CBEB0504002C40F318
:102D60008380102C40F31E821499324D1027DDF819
:102D700018A0DDF808B005E0881C08361946103C9C
:102D8000102C10DD4B1C1032072B159286E8A0008A
:102D90001493F1DD002A7DD1103C102C4FF001007E
:102DA00011464E46EEDC22440728159235607460C9
:102DB000149059DD002A4FD1099CDDF80CB0049D18
:102DC000AB45ACBF5C44641909945EE020460299AF
:102DD00013AAFFF7A9FB002835D1149B159A03F11C
:102DE000010C484681E7E00840EA457004F007021C
:102DF000E908303250EA010B1F461A7004460D46AE
:102E000003F1FF33EFD11AF0010FCDE90C01394680
:102E100000F0B980302A3FF4F4AC1F46C7EB090537
:102E20003023059501F8013CEEE400BF085F08007F
:102E3000245F0800E45E0800159B23B10698029900
:102E400013AAFFF771FB029CA3895B063FF598ACC0
:102E5000099831B0BDE8F08F0698029913AAFFF7E0
:102E600063FB0028EFD1159A099CDDF80CB0049D96
:102E7000AB45ACBF5C446419099432B10698029921
:102E800013AAFFF751FB0028DDD1002014904E4615
:102E9000FFF7B9BB5046594613AAFFF745FB002878
:102EA000D1D11499159A481C4E4668E7002A40F083
:102EB000F780059C012320972194159422461493B2
:102EC0004E46083641E7049DDDF80CB0CBEB050417
:102ED000002C7FF7F7AE102CA64D40F370812946E9
:102EE0004FF0100B25466446B4460E4606E0981C8B
:102EF0000CF1080C0B46103D102D0FDD591C103243
:102F0000072915928CE840081491F0DDBAB9103DFC
:102F1000102D4FF001001346CC46EFDC33466646D9
:102F2000A4462C461D46224407281592356074603D
:102F3000149000F3AF800836411C0346C2E60698A1
:102F4000029913AAFFF7F0FA00287FF47CAF149BD4
:102F5000159A581CCC46CEE7002A79D119464E4620
:102F600013469CE6002A40F08480012113464E4619
:102F7000A4E64F4648E4002D08BF0A2C46D2303460
:102F800030AF07F8414DC7EB090305933CE402233A
:102F900017E4002A40F0AF80134601214E466DE64B
:102FA0004446FFF758BB0698029913AAFFF7BCFAEC
:102FB00000287FF448AF159A4E46C6E6089D2C6857
:102FC000043508950025FFF7FCBB089D01232C68FC
:102FD000043508950025FFF7F4BB089D2C680435DF
:102FE0000895002525E5089D2C6804350895E5170A
:102FF00022462B468EE40698029913AAFFF794FA0C
:1030000000287FF420AF4E46FFF79ABB0DF17F0BEF
:1030100003965E46E346204629460A22002301F035
:1030200039FE30323270204629460A22002301F050
:1030300031FE04460D4654EA0500374606F1FF36D8
:10304000E9D1C7EB0903DC46039E0593FFF7DCBB20
:103050000698029913AACDF804C0FFF765FADDF8C7
:1030600004C000287FF4EFAE149B159A591C4E46FD
:1030700015E60698029913AACDF804C0FFF754FA92
:10308000DDF804C000287FF4DEAE149B159A591CAD
:103090004E4613E6002A56D1012113464E4611E64C
:1030A0000698029913AAFFF73FFA00287FF4CBAEE7
:1030B0001499159A01314E4639E64FF02D0B6442B2
:1030C00065EB45058DF847B0CDF81CB0CDF814C0C0
:1030D0000123FFF77EBB1AF0100F1DD11AF0400F2D
:1030E00058D0089DDDF824B02B6804350895A3F866
:1030F00000B0FFF788BA0698029913AACDF804C069
:10310000FFF712FADDF804C000287FF49CAE149B90
:10311000159A591C4E46B1E5DDF820B0099CDBF844
:1031200000300BF1040BCDF820B01C60FFF76BBA38
:103130000894FFF7C1F99DF84740059007944FF0B8
:10314000000CFFF761BB0698029913AACDF804C0E2
:10315000FFF7EAF9DDF804C000287FF474AE149B91
:10316000159A591C4E46ADE5149B159A0133024D34
:10317000FFF79ABB245F0800E45E0800BCF1060F6D
:1031800034BF63460623089423EAE374059303944B
:10319000164F72E4089C099D2368043408941D604E
:1031A000FFF731BA1498124D0130FCE59DF84750F5
:1031B000CDF814C0079508948446FFF725BB084650
:1031C000B1E6A0460025FFF75ABADDF820B098F81E
:1031D0000130DBF800500BF10402002D0892A046EC
:1031E000BFF64BAA4FF0FF35FFF747BA1C5F080048
:1031F000E45E08002DE9F0474F6EADF58D6D884611
:103200001997D8F81C70B1F80CA0B1F80E90079778
:10321000D8F824701AAC4FF480652AF0020A002610
:1032200069460094049402950595ADF80CA0ADF89C
:103230000E90099706960546FFF7B2F9041E07DBC4
:103240002846694600F02AF9B04218BF4FF0FF3413
:10325000BDF80C305B0605D5B8F80C3043F04003E0
:10326000A8F80C3020460DF58D6DBDE8F08700BF45
:103270002F4B70B5064618680C4610B1826B002AB9
:1032800036D0A589ABB219070CD52269AAB113F0C3
:1032900001011ED0636900215B42A361A160F2B10C
:1032A000002070BDDA063AD55B0724D4226945F0C8
:1032B0000803A3819BB2002AE9D103F42071B1F580
:1032C000007FE4D03046214600F0CCFCA38922697F
:1032D000DDE7980758BF6169A160002AE0D1A389A2
:1032E0001A06DDD543F04003A3814FF0FF3070BDD7
:1032F00000F0F0F8C5E7216B49B104F140039942B1
:1033000003D0304600F02AFAA589002323632269FE
:1033100025F024050021ADB222606160C7E745F0C9
:103320004005092333604FF0FF30A58170BD00BF19
:1033300098040720024B13B1024800F005B870470B
:1033400000000000D1350800014600200246034677
:1033500001F0A4BB8B892DE9F0419AB20D4611070B
:1033600080463CD46A6843F40063002AAB8159DD8F
:10337000AC6A002C4BD09BB203F48052002192B275
:10338000D8F80060C8F80010002A4FD02A6D5F07F7
:1033900005D569682B6B521A0BB1EB6BD21A4046FC
:1033A000E9690023A047441C4AD0AB892A6923F469
:1033B00000639BB200212A60DA04AB8169604CD4BF
:1033C000296BC8F8006011B305F14003994202D09F
:1033D000404600F0C3F900202863BDE8F0812E6963
:1033E000AEB191072C680CBF6B6900232E60A41B43
:1033F000AB600AE0324623466F6A4046E969B84747
:103400000028C0EB0404064404DD002CF2DC00209C
:10341000BDE8F081AB894FF0FF3043F04003AB8152
:10342000BDE8F081EA6B002AA2DCF0E70123404608
:10343000E969A047431C02461ED0AB89AC6AA6E7E7
:10344000D8F800305BB9AA89296922F4006292B2E7
:103450006B60D304AA812960B2D52865B0E71D2B23
:1034600001D0162B13D1A9892B6921F40061002208
:10347000A9812B606A60A3E7D8F80030002BDCD06C
:103480001D2B01D0162BC5D1C8F80060BFE7AB8952
:1034900043F04003AB81BDE8F08100BF10B50446A6
:1034A00082B008B1836B53B1B1F90C0008B902B016
:1034B00010BD204602B0BDE81040FFF74BBF0191A0
:1034C00000F008F80199EFE7014900F09DBB00BF4B
:1034D000E94B08002DE9F04F846B83B00746002CC0
:1034E00065D17D6833480423032107F53B72F863F7
:1034F000C7F8E412C7F8E822C7F8E04205F15C001B
:10350000AB812C606C60AC606C66EC812C616C6192
:10351000AC6121460822FEF785FFDFF89CB0BE684B
:10352000DFF898A0DFF89890DFF89880012309224F
:10353000ED61C5F820B0C5F824A0C5F82890C5F8FD
:103540002C802146F381B28134607460B46074666B
:1035500034617461B461082206F15C000193FEF7E6
:1035600061FFFD6812200222F661C6F820B0C6F89D
:1035700024A0C6F82890C6F82C802146A881EA81AC
:103580002C606C60AC606C662C616C61AC6105F1A8
:103590005C000822FEF746FF019BED61C5F820B0F4
:1035A000C5F824A0C5F82890C5F82C80BB6303B0EB
:1035B000BDE8F08FC9340800DD4808000149080063
:1035C0003949080059490800704700BF704700BFDB
:1035D00038B5094D094C641BA41018BF05EB8405D0
:1035E00005D0013C55F8043D9847002CF9D1BDE8C1
:1035F000384002F0B1BC00BF645F0800685F08009B
:103600002DE9F04193890F46990482B01446804613
:1036100006D4526E43F4005342F40052A381626612
:1036200000F01AFB01283ED03A46404601A904F1B9
:103630005C0301F0E9F9421C06462DD000283AD07F
:103640009DF80410002509E02368197023680133F0
:1036500023600135B5422ED201ABE95CA368013B82
:10366000002BA360F0DAA269934206DB236819708D
:103670002368197801330A29EAD14046224601F02D
:103680006FF9B0F1FF33584258410028E1D04FF0B4
:10369000FF3002B0BDE8F081A38943F04003A3816D
:1036A00002B0BDE8F0817B1EFE2BBDD8F9B2064604
:1036B0008DF80410C6E7384602B0BDE8F08100BFBF
:1036C000F8B5234D0F46044600F0FEFEAB685E6879
:1036D00026F00306F11B01F6EF7121F47F6121F062
:1036E0000F01A1F58057B7F5805F07DB2046002169
:1036F00001F0CEF8AB683344984204D0204600F085
:10370000E5FE0020F8BD2046794201F0C1F8013005
:103710000DD0104BAA681968F61B46F0010620462A
:10372000C91B5660196000F0D1FE0120F8BD20468B
:10373000002101F0ADF8AB68C21A0F2ADEDD064D9C
:1037400004492D6842F00102401B5A600860D5E729
:10375000C0040720881A0720CC0807202DE9F04173
:103760000D460646002955D000F0AEFE55F8041C63
:10377000DFF870C1A5F1080421F00103E218DCF8BC
:1037800008005768904227F0030768D011F0010144
:10379000576032D00021D0194068C00706D43B449E
:1037A000906800294DD0D268C260906043F0010259
:1037B0006260E350E1B9B3F5007F2DD35A0A042AC1
:1037C00069D89809383041000CEB810CDCF80820EE
:1037D0004449624565D0516821F003018B4202D211
:1037E00092689445F7D1D368E360A2609C60D4608E
:1037F0003046BDE8F04100F069BE55F8085C0CF1B8
:103800000808641BA0682B44404542D0E568C560A9
:10381000A860C0E7BDE8F081DB089A100120904065
:10382000DCF804100CEBC3039A680143A260E36068
:10383000CCF8041030469C60D460BDE8F04100F044
:1038400045BE294DA842AED143F00102CCF8144048
:10385000CCF81040E060A0606260E350C8E71F440D
:10386000CB0707D455F8081C641AE368A2680F4414
:10387000D3609A601D4B47F001021B6862609F4253
:10388000CCF80840B4D31A4B30461968FFF718FF3C
:10389000AEE701217FE7142A0BD802F15B0041005B
:1038A00092E7801001258540486813462843486008
:1038B0009AE7542A03D8180B6E30410084E7B2F51A
:1038C000AA7F03D8D80B773041007DE740F25451EE
:1038D0008A4203D8980C7C30410075E7FC217E2099
:1038E00072E700BFC0040720C8040720C8080720EB
:1038F000841A07202DE9F04F936883B0164681465D
:103900000C462BB38B89190726D5226922B303F005
:10391000020292B23568002A2CD04FF0000ADFF87C
:10392000E4B2D046D84534BF43465B46524648468B
:10393000B8F1000F4FD0E169676AB847002856DD3B
:10394000B36882441B1AC0EB0808B360002BE9D1AE
:10395000002003B0BDE8F08F48462146FFF788FC01
:10396000002840F04681A389356803F0020292B234
:10397000002AD2D113F0010A42D1D046B8F1000F8B
:1039800023D09A05A76876D5B845C0F0A48013F473
:10399000906F40F0B2802068BB4651465A4600F016
:1039A0002DFDA2682168D21B01EB0B03A2602360EE
:1039B0004246B36892449B1AC2EB0808B360002BDE
:1039C000C6D0A389B8F1000FDBD1D5F800A0D5F897
:1039D00004800835D2E7D5F800A0D5F80480083572
:1039E000A0E748462146FFF759FD002859D0A38992
:1039F00043F040034FF0FF30A38103B0BDE8F08FE8
:103A00009246019293469046B8F1000F2BD0019F49
:103A1000002F64D020682169C24534BF5346434615
:103A200088421F46D4F808C0626903D994446345AC
:103A300000F3AE80934236DB1346676A4846E1697D
:103A40005A46B847071ED2DDBAEB070A3AD0B36828
:103A5000BB44DB1BC7EB0808B360002B3FF478AF17
:103A6000B8F1000FD3D10027D5F800B0D5F8048005
:103A700001970835C8E720682369984202D863692E
:103A8000984572D2B84538BF47463A46514600F08D
:103A9000B5FCA3682268DB1B3A44A3602260002BBC
:103AA0009FD03A4685E71A465946009300F0A6FC97
:103AB000009BA1682268C91ABAEB070A1344A160E7
:103AC0002360C4D148462146FFF7E8FC00288ED188
:103AD000CDF804A0BBE720684746C3465DE75846DB
:103AE0000A21424600F0CAFB00287DD000F1010AFD
:103AF0000127CBEB0A0A01978CE7226821696769E5
:103B0000C1EB020C07EB47070CF1010207EBD7777B
:103B100042447F10974234BF17463A465B054DD565
:103B200011464846CDF800C000F00CF9DDF800C0A1
:103B30008346002860D062462169CDF800C000F0BD
:103B4000E7FBA289DDF800C022F4906242F0800217
:103B5000A2810BEB0C00CCEB0702C4F810B067613C
:103B60002060A2604746C34617E76FF000429045C9
:103B700038BF424692FBF3F202FB03F3676A484602
:103B8000E1695246B84700287FF731AF024610E797
:103B900062465946CDF800C000F030FCDDF800C0A8
:103BA00023684846634423602146FFF777FCDDF82D
:103BB00000C000287FF41BAF674645E74846CDF8B4
:103BC00000C000F085FCDDF800C083460028C0D1AD
:103BD00048462169FFF7C2FDA3890C2223F0800328
:103BE0009BB2C9F8002003E7012708F1010A0197F9
:103BF00010E74FF0FF30ACE60C23C9F80030A38982
:103C0000F6E600BF00FCFF7F2DE9F04110F53877A4
:103C1000884619D000267D68BC68013D0ED4A38972
:103C2000013D012B06D9B4F90E302046013301D0F5
:103C3000C04706436B1C04F16804F0D13F68002FB5
:103C4000E9D13046BDE8F0813E463046BDE8F0811E
:103C5000004870479C040720014B1868704700BF5C
:103C6000BC040720F0B58B8991B09AB296070C4638
:103C7000054637D4B1F90E10002917DB01AA00F070
:103C8000BBFF002810DB029B03F47043B3F5005127
:103C90004F424F41B3F5004F2CD0A3894FF48066BB
:103CA00043F40063A3810BE0A3899AB212F0800F62
:103CB00043F40063A38114BF40264FF480660027BD
:103CC0002846314600F03EF8A389002829D01B4A37
:103CD00043F08003EA63A381206020616661A7B995
:103CE00011B0F0BD01F1430301220B600B614A6189
:103CF00011B0F0BD124AA36A9342CED1A3894FF40A
:103D000080663343A381E664DAE72846B4F90E10EF
:103D100000F086FF0028E3D0A38943F00103A381CC
:103D2000DEE79A05DCD404F1430243F002030121EB
:103D3000A381226022616161D2E700BFC93408001B
:103D4000394908002DE9F04F01F10B05162D83B01C
:103D5000064627D935F0070527D4A94225D830468D
:103D600000F0B2FBB5F5FC7F26D2C14F4FEAD50C6F
:103D700007EBCC03DC689C4200F0D2816368E26808
:103D800023F0030323445868A16840F00105CA608A
:103D9000304691605D6000F099FB0834204603B026
:103DA000BDE8F08F1025A942D9D900240C23204664
:103DB000336003B0BDE8F08F5FEA552C00F08980D6
:103DC000BCF1040F00F260814FEA951C0CF1380C35
:103DD0004FEA4C01A64F07EB8101CC68A14205D107
:103DE0000CE0002B79DAE468A14207D0626822F087
:103DF0000302531B0F2BF4DD0CF1FF3C0CF1010C03
:103E00009B4B3C6903F1080E744500F07E816168AC
:103E100021F003014A1B0F2A00F36481002AC3F832
:103E200014E0C3F810E069DAB1F5007F80F03A8160
:103E3000C9088A104FF0010808FA02F803EBC10123
:103E40005A68886848EA0202A060E1605A608C60A3
:103E5000C4604FEAAC030120984090425BD8024214
:103E600006D12CF0030C400002420CF1040CFAD0F5
:103E700007EBCC084446E146E3689C4207D146E1A3
:103E8000002A80F25781DB689C4200F0408159682B
:103E900021F003014A1B0F2AF2DD1C4654F808CF1B
:103EA000D96845F0010942F001081D44C3F80490A7
:103EB0003046CCF80C10C1F808C07D613D61C5F8F2
:103EC0000CE0C5F808E0C5F80480AA5000F0FEFA3E
:103ED00064E77E214FF03F0C7CE722445068E368A2
:103EE000A16840F00105CB6030469960556000F054
:103EF000EDFA0834204603B0BDE8F08F21444B684A
:103F0000304643F001034B6000F0E0FA08342046ED
:103F100003B0BDE8F08FBC68636823F00309A945CE
:103F200004D3C5EB09030F2B00F39180514B524A88
:103F30001968136805EB010A013304EB090B00F063
:103F400061810AF5805A0AF10F0A2AF47F6A2AF081
:103F50000F0A30465146019200F09AFCB0F1FF3F43
:103F60008046019A00F00181834500F2FB80DFF872
:103F700014C1C345DCF800305344CCF8003000F0E5
:103F80004A8112683C4901321BBFCBEB080B5B44F2
:103F9000C1F80080CCF8003018F0070300F014815D
:103FA000C3F10802C3F5805390440833C244CAF3F6
:103FB0000B0ACAEB030A51463046CDF804C000F0A4
:103FC00067FC431CDDF804C000F03581C8EB00023B
:103FD000524442F00102DCF80030BC425344C7F8BE
:103FE0000880CCF80030C8F80420DFF898A015D07D
:103FF000B9F10F0F40F2EB806168A9F10C0222F0D9
:10400000070201F0010142EA010E0520A1180F2A62
:10401000C4F804E04860886000F21181174ABC6867
:1040200011688B4288BF1360154A11688B4288BFA4
:104030001360626822F003029542C5EB020301D8C7
:104040000F2B04DC304600F041FA0024A6E645F0D0
:10405000010243F00103254462603046BD606B609D
:1040600000F034FA0834204603B0BDE8F08F00BFFA
:10407000C0040720841A0720CC080720801A0720D4
:104080007C1A0720881A0720BCF1140F61D9BCF1F3
:10409000540F00F28F804FEA153C0CF16E0C4FEA82
:1040A0004C0197E64B0A042B58D9142B00F2AD8033
:1040B00003F15B02500007EB80008368DFF8B881F2
:1040C000834200F08A805A6822F00302914202D2B1
:1040D0009B689842F7D1D9687A68E160A3608C60E8
:1040E000DC60B6E645F0010742F001012544676057
:1040F00030465D611D61C5F80CE0C5F808E06960F7
:10410000AA50083400F0E2F948E65A68A1E609F13D
:10411000010919F0030F04F108047FF4ADAE2DE09E
:1041200004F108036469A34208BF0CF1020C3FF4D8
:1041300067AE23E6194448681C4654F8082FDB682C
:1041400040F001054D603046D3609A6000F0BEF942
:1041500024E60CF15B0C4FEA4C013BE68A0938324D
:104160005000A8E7BC423FF402AFBC68626822F08E
:10417000030261E7D8F8008098457AD11CF0030F5C
:10418000A8F108030CF1FF3CF4D17B6823EA00039B
:104190007B60400098423FF6BEAE00283FF4BBAEC5
:1041A0000342CC467FF464AE400003420CF1040CA1
:1041B000FAD05DE6BCF5AA7F19D84FEAD53C0CF1E0
:1041C000770C4FEA4C0105E64FF48053EEE60123ED
:1041D000C8F80430444600222EE792100120904097
:1041E000D8F8042019460243C8F8042075E740F2C5
:1041F00054539C451BD84FEA954C0CF17C0C4FEA6C
:104200004C01E7E50AF1100AA3E6542B1FD80A0B6C
:104210006E3250004FE7CBF30B0100297FF4B1AEB3
:104220000AEB0901BA6841F001015160F6E6FC2190
:104230004FF07E0CCEE501224FF0000ACBE604F1F0
:1042400008013046FFF78AFADAF80030E6E6B3F5FF
:10425000AA7F03D8CA0B773250002CE740F25452A1
:10426000934203D88A0C7C32500024E7FC207E2243
:1042700021E77B688DE700BFC0040720830770B487
:10428000C9B240D0541E2AB303788B4223D0431CBA
:1042900004E0FCB1057814468D421CD013F0030FE6
:1042A000184604F1FF3203F10103F2D1032C14D8B4
:1042B000651E54B303788B420DD0421C002302E0EC
:1042C00004788C4207D0AB42104603F1010302F19F
:1042D0000102F5D1002070BC704741EA0126034677
:1042E00046EA06461A6818467240A2F1013525EAE8
:1042F000020212F0803F03F10403D9D1043C032CE5
:104300001846EFD8D4E71446D0E72046E3E700BFCD
:10431000844641EA000313F0030349D1403A23D312
:104320000B6803604B6843608B688360CB68C36035
:104330000B6903614B6943618B698361CB69C3611D
:104340000B6A03624B6A43628B6A8362CB6AC36205
:104350000B6B03634B6B43638B6B8363CB6BC363ED
:1043600040304031403ADBD230320BD30B6803602F
:104370004B6843608B688360CB68C360103010313A
:10438000103AF3D20C3205D351F8043B40F8043B09
:10439000043AF9D2043208D0D2071CBF11F8013B0D
:1043A00000F8013B01D30B8803806046704700BFD3
:1043B000082A13D38B07B1D010F00303AED0C3F19A
:1043C0000403D21ADB071CBF11F8013B00F8013BC4
:1043D000A4D331F8023B20F8023B9FE7043AD9D33B
:1043E000013A11F8013B00F8013BF9D20B78037058
:1043F0004B7843708B788370604670478842F0B486
:1044000010D98C18A0420DD28518531E42B12146F6
:104410002A4611F8014D013B02F8014D5C1CF8D110
:10442000F0BC70470F2A44D940EA01039B0744D1EE
:10443000A2F110073F0900EB071610360C460346A1
:104440002568103343F8105C6568103443F80C5C41
:1044500054F8085C43F8085C54F8045C43F8045CC6
:10446000B342EDD17B1C02F00F0C1B01BCF1030F1A
:104470001944034423D90E461D46644656F8047B6E
:10448000043C032C45F8047BF8D8ACF1040424F078
:104490000304043402F0030223442144002ABFD061
:1044A0001A4411F8014B03F8014B9342F9D1F0BCC7
:1044B00070470346002AF3D1B2E70346F0E76246AD
:1044C000002AEDD1ACE700BF704700BF704700BFC6
:1044D0002DE9F04F0C4683B090468146002900F04C
:1044E000BA80FFF7F1FF08F10B0654F8043C162ED2
:1044F00023F00305A4F108074BD810210E46B04560
:104500004CD88D4251DADFF884B37819DBF808E033
:10451000864500F0A680426822F0010C8444DCF855
:1045200004C01CF0010F54D000221046DB076FD4EA
:1045300054F8083CC3EB070ADAF8043023F003030D
:104540002B44002862D0704500F0E98002EB030E96
:104550008E455BDBC3688268D046D3609A6058F8AA
:10456000081FDAF80C302A1F242ACB60996000F269
:104570002381132A40F2B08023681B2ACAF808302E
:104580006368CAF80C3000F22B8108340AF110037A
:10459000A3E026F00706002E3146B0DA0C230020F7
:1045A000C9F8003003B0BDE8F08FA046AA1B0F2A5F
:1045B00003F001031AD82B437B603D446B6843F042
:1045C00001036B604846FFF781FF404603B0BDE83A
:1045D000F08F22F0030202EB050C8C45A6DBC268CB
:1045E0008168A046CA6065469160DFE7B919334328
:1045F00042F001007B600A4448605368083143F090
:10460000010353604846FFF7A9F8DBE78B4233DA32
:1046100041464846FFF796FB80460028D2D054F822
:10462000043CA0F1080123F001023A44914200F059
:10463000BC802A1F242A6ED8132A42D80346224659
:10464000116819605168596092689A60214648461D
:10465000FFF784F8B6E7114603B0BDE8F04FFFF767
:1046600071BBDEF8042006F1100C22F00302501991
:1046700060453DDA704659E7D04658F8080FDAF839
:104680000C102A1F242AC160886000F2A080132A1F
:1046900040F29B8021681B2ACAF808106168CAF89A
:1046A0000C1000F2B28008340AF1100221681D4695
:1046B0001160616857465160A3689360DAF804306E
:1046C00074E723681B2A03606368436062D800F1C3
:1046D000080304F10802B3E74346226875461A60EE
:1046E000626857465A60A2689A60DAF804305DE75B
:1046F000831B374443F00103CBF808707B6054F808
:10470000043C484603F001031E4344F8046CFFF7E1
:10471000DDFE20465AE72146FFF770FE96E702EBE2
:10472000030C06F110029445FFF670AF574657F898
:10473000081FDAF80C302A1F242ACB60996000F297
:104740008680132A77D923681B2ACAF80830636841
:10475000CAF80C3000F2848008340AF11003226891
:104760001A6062685A60A2689A60C6EB0C020AEB93
:10477000060342F00102CBF808305A60DAF8043040
:10478000484603F001031E43CAF80460FFF79EFE8B
:1047900038461BE7A368242A8360E368C3602BD0F4
:1047A00000F1100304F110024AE750F8042CA0466F
:1047B00022F003021544F9E6214640467546574665
:1047C000FFF71CFEDAF80430F0E642466EE72146B9
:1047D00040461D465746FFF711FEDAF80430E5E67D
:1047E000A368242ACAF81030E368CAF8143018D035
:1047F00010340AF1180370E7226900F1180302610E
:10480000616904F1180241611AE7A168242ACAF813
:104810001010E168CAF814100FD010340AF1180211
:1048200044E722690AF12003CAF8182062691834A3
:10483000CAF81C2051E73B4691E721690AF12002A2
:10484000CAF8181061691834CAF81C102EE72146FE
:104850003846CDF804C0FFF7D1FDDDF804C084E789
:10486000A368242ACAF81030E368CAF8143003D0C9
:1048700010340AF1180372E722690AF12003CAF81A
:10488000182062691834CAF81C2068E7C0040720A1
:1048900038B5074C0023054608462360FCF73CFC6E
:1048A000431C00D038BD2368002BFBD02B6038BDE3
:1048B000B01A072038B5084C0023054608461146B3
:1048C0002360FCF763FC431C00D038BD2368002B39
:1048D000FBD02B6038BD00BFB01A072010B50C46C6
:1048E000B1F90E1000F0C2F9002803DB236D034478
:1048F000236510BDA38923F48053A38110BD00BF9D
:104900002DE9F0410C4689891D46CB051646074620
:1049100006D5B4F90E100022022300F093F9A18904
:1049200021F48051A1813846B4F90E1032462B464D
:10493000BDE8F04100F09EB810B50C46B1F90E107C
:1049400000F080F9A389421C0EBF23F4805343F486
:1049500080532065A38110BDB1F90E1000F0F2B8AC
:10496000F8B50D461446074610B1836B002B48D0AE
:10497000A289A06993B2A060180738D52669002ED5
:1049800035D09904EDB215D5236862699E1B964215
:104990001CDA0136A268591C013AA26021601D7020
:1049A0006369B3421AD0A389DB0701D50A2D15D05C
:1049B0002846F8BD636E42F4005223F40053636648
:1049C0002368A28162699E1B9642E2DB384621463B
:1049D000FEF764FD40B923680126DBE7384621462F
:1049E000FEF75CFD0028E3D04FF0FF30F8BD3846FD
:1049F0002146FEF73DFC0028F6D1A289266993B234
:104A0000BFE7FEF767FDB3E72DE9F0411E4686B02C
:104A10000C46054617460F4B91B1D3F80080FFF7BF
:104A200017F90096034621463A462846C047431CDC
:104A300003D100228A2332602B6006B0BDE8F081EA
:104A40001F68FFF705F9009603462246284603A98A
:104A5000B847ECE7D008072021B1FF2A04D80A7034
:104A600001207047084670478A2303604FF0FF30EB
:104A7000704700BF70B5084C064600250846114631
:104A80001A462560FCF768FB431C00D070BD236804
:104A9000002BFBD0336070BDB01A0720F0B5274C57
:104AA00085B026680746D6F84841002C40D0656896
:104AB0001F2D1EDD224818B94FF0FF3005B0F0BDA4
:104AC0004FF4C870039102920193AFF300800399F1
:104AD0000446029A019B0028EED0D6F848510020E7
:104AE000256060600546C6F84841C4F88801C4F8EE
:104AF0008C013FB96B1C00200235636044F825101F
:104B000005B0F0BD0126AE4004EB8500C0F888205A
:104B1000D4F88821022F42EA0602C4F88821C0F89E
:104B20000831E7D1D4F88C311E43C4F88C61E1E739
:104B300006F5A674C6F84841B9E700BFE05E080074
:104B40000000000038B5074C0023054608462360E6
:104B5000FCF7F3FA431C00D038BD2368002BFBD0D0
:104B60002B6038BDB01A072070B50C46054631B130
:104B700010B1836B002B2FD0B4F90C300BB900208F
:104B800070BD28462146FEF789FCE36A064633B12C
:104B90002846E16998470028B8BF4FF0FF36A3893F
:104BA0001B061CD4216B41B104F14003994202D091
:104BB0002846FEF7D3FD00232363616C21B128460C
:104BC000FEF7CCFD00236364FEF7FEFC0023A38107
:104BD000FEF7FCFC304670BDFEF77CFCCCE72846B7
:104BE0002169FEF7BBFDDDE7024B01461868FFF7C0
:104BF000BBBF00BF9804072038B5084C002305460A
:104C0000084611462360FCF79BFA431C00D038BDD0
:104C10002368002BFBD02B6038BD00BFB01A0720E3
:104C200038B5074C0023054608462360FCF78DFA8B
:104C3000431C00D038BD2368002BFBD02B6038BD4F
:104C4000B01A072070B5084C0646002508461146E4
:104C50001A462560FCF77BFA431C00D070BD236820
:104C6000002BFBD0336070BDB01A072070B5084C24
:104C700006460025084611461A462560FCF769FAE3
:104C8000431C00D070BD2368002BFBD0336070BD87
:104C9000B01A07204BB942B9002908BF002802D03A
:104CA0004FF0FF31084600F03BB882B0EC462DE9EA
:104CB000005000F01DF8DDF804E002B00CBC7047B5
:104CC0002DE9704F089E14461D468046894600F027
:104CD00029F804FB01F3A4FB00AB00FB053293446D
:104CE000B8EB0A0869EB0B09C6E90089BDE8708FCB
:104CF0002DE9704F089E14461D468046894600F0F7
:104D000061F900FB05F5A0FB04AB04FB0154A344CF
:104D1000B8EB0A0869EB0B09C6E90089BDE8708F9A
:104D2000704700BF00292DE9F00FC0F2A1800024D8
:104D3000002BC0F29880154606460F46002B3FD147
:104D40008A4258D9B2FA82F34BB1C3F1200201FA78
:104D500003F720FA02F29D4000FA03F61743290CEC
:104D6000B7FBF1F201FB1277A8B200FB02F34FEAA6
:104D7000164C4CEA0747BB4209D97F1902F1FF3CA8
:104D800080F00581BB4240F20281023A2F44FF1AB3
:104D9000B7FBF1F301FB137100FB03F0B6B246EA77
:104DA0000141884208D9491903F1FF3780F0F180A9
:104DB000884240F2EE80023B43EA0242002303E0D5
:104DC0008B420AD900231A461046194614B14042B4
:104DD00061EB4101BDE8F00F7047B3FA83F8B8F119
:104DE000000F40F088808B4202D3824200F2E280C2
:104DF00000230122E8E712B90123B3FBF2F5B5FA6B
:104E000085F2002A3AD17F1B280C1FFA85FC01236A
:104E1000B7FBF0F100FB11770CFB01F24FEA1648EB
:104E200048EA0747BA4207D97F1901F1FF3802D291
:104E3000BA4200F2C4804146BF1AB7FBF0F200FB51
:104E400012700CFB02FCB6B246EA0040844507D95A
:104E5000401902F1FF3702D2844500F2AE803A4693
:104E600042EA0142B0E7E443524263EB430362E7A4
:104E7000404261EB41014FF0FF3459E79540C2F1E8
:104E8000200927FA09F126FA09F99740280CB1FB05
:104E9000F0F800FB18111FFA85FC0CFB08F349EA37
:104EA00007094FEA194747EA01418B4206FA02F621
:104EB00008D9491908F1FF327AD28B4278D9A8F182
:104EC00002082944C91AB1FBF0F300FB13170CFBCD
:104ED00003F21FFA89F949EA0747BA4207D97F194D
:104EE00003F1FF3160D2BA425ED9023B2F44BF1AB0
:104EF00043EA08438CE7C8F1200225FA02F103FADD
:104F000008FC27FA02F320FA02F207FA08F741EA4E
:104F10000C0C4FEA1C49B3FBF9F109FB11331FFAE2
:104F20008CFA0AFB01FB17433A0C42EA03439B4508
:104F300005FA08F008D913EB0C0301F1FF3235D262
:104F40009B4533D902396344CBEB0303B3FBF9F23E
:104F500009FB12330AFB02FABFB247EA0347BA451C
:104F600008D917EB0C0702F1FF331BD2BA4519D948
:104F7000023A674442EA0145A5FB0001CAEB070774
:104F80008F424FF000030AD305D02A461CE7624641
:104F9000FDE63B4610E706FA08F68642F5D26A1EA1
:104FA000002311E71A46E5E70B46A0E71146CBE7D9
:104FB000904687E74346424606E7023A50E7023901
:104FC0002F4439E72DE9F00F144605460E46002B15
:104FD00043D18A4253D9B2FA82F757B1C7F12006BA
:104FE00020FA06F601FA07F302FA07F400FA07F5C9
:104FF0001E43210CB6FBF1F201FB1266A0B200FBCE
:1050000002F32F0C47EA0646B34209D9361902F1DA
:10501000FF3780F0FD80B34240F2FA80023A264426
:10502000F61AB6FBF1F301FB136100FB03F0ADB21E
:1050300045EA0141884208D9091903F1FF3680F099
:10504000E980884240F2E680023B43EA02420023C4
:1050500010461946BDE8F00F70478B424CD8B3FAA2
:1050600083F6002E4FD18B4202D3824200F2DD80C4
:10507000BDE8F00F0023012210461946704712B90F
:105080000124B4FBF2F4B4FA84F2002A40F08280E6
:10509000091B260CA7B20123B1FBF6F006FB101189
:1050A00007FB00F24FEA154C4CEA01418A4207D94E
:1050B000091900F1FF3C02D28A4200F2C880604622
:1050C000891AB1FBF6F206FB121107FB02F7ADB22B
:1050D00045EA0145AF4208D92C1902F1FF3180F0B1
:1050E0009B80A74240F29880023A42EA0042104672
:1050F0001946BDE8F00F704700231A4610461946BE
:10510000BDE8F00F7047C6F1200522FA05F703FA53
:1051100006F421FA05F301FA06FB20FA05F53C43F3
:105120004FEA1448B3FBF8FC08FB1C331FFA84F960
:1051300009FB0CFA45EA0B0B4FEA1B4545EA034312
:105140009A4502FA06F204D91B190CF1FF356FD308
:10515000AC46CAEB0303B3FBF8F508FB153309FBB8
:1051600005F91FFA8BFB4BEA0347B94504D93F19F0
:1051700005F1FF3362D31D4645EA0C4CACFB02231C
:10518000C9EB07079F424FF000054AD346D062465D
:105190002B465DE79440C2F1200921FA09FC9140B9
:1051A00020FA09F9260CBCFBF6F806FB18CCA7B2CE
:1051B00007FB08F349EA01094FEA194141EA0C4C9F
:1051C000634500FA02F509D91CEB040C08F1FF3223
:1051D0003BD2634539D9A8F10208A444C3EB0C0CB7
:1051E000BCFBF6F306FB13C107FB03F21FFA89F9B8
:1051F00049EA01418A4207D9091903F1FF3022D255
:105200008A4220D9023B2144891A43EA084343E7F2
:105210003A4605E7334618E70A4666E7B04090424B
:10522000B5D20CF1FF32002312E7334632460FE7C6
:105230009A458DD9ACF1020C23448AE7B9459AD935
:10524000023D274498E70346DEE79046C6E702386A
:10525000214435E708030202034B0902030302431A
:105260000A03030303460B04030304480C0304046A
:1052700004430D040404044D0E04040504400F040B
:1052800005050443100505050445110605050447F9
:105290001205060604431306060604441407060610
:1052A00004461508060604471607070704441708AE
:1052B00008070446180708080443190808080444A6
:1052C0000102040810204080000E0E400001000082
:1052D0000B000000010000000000000004000000BE
:1052E000FFFFFFFF000E0E40000200000B00000059
:1052F000010000000000000004000000FFFFFFFFAD
:1053000000100E40000000020C000000020000002F
:105310000000000014000000FFFFFF0000120E401C
:10532000000000100D00000002000000000000005E
:1053300014000000FFFFFF0E00120E4000000004EA
:105340000D0000000200000000000000140000003A
:10535000FFFFFF0D00120E40000000020D000000D4
:10536000020000000000000014000000FFFFFF0C1E
:1053700000120E40000000010D00000002000000BD
:10538000000000000C000000FFFF07FF00120E40AD
:10539000000080000D00000002000000000000007E
:1053A0000C000000FFFF06FF00120E40000040004E
:1053B0000D00000002000000000000000C000000D2
:1053C000FFFF05FF00120E40000020000D0000004E
:1053D00002000000000000000C000000FFFF04FFBE
:1053E00000120E40000000200D000000020000002E
:1053F0000000000014000000FFFFFF0F00140E402B
:10540000800000000E00000002000000000000000C
:1054100014000000FFFFFF1000140E400001000008
:105420000E00000002000000000000001400000058
:10543000FFFFFF1100100E40000000080C000000EC
:10544000020000000000000014000000FFFFFF0148
:1054500000140E40100000000E00000002000000CA
:105460000000000004000000FFFFFFFF00140E40DA
:10547000200000000E0000000200000000000000FC
:1054800004000000FFFFFFFF000E0E4000200000A0
:105490000B000000010000000000000004000000FC
:1054A000FFFFFFFF000E0E40001000000B00000089
:1054B000010000000000000004000000FFFFFFFFEB
:1054C000000E0E40000800000B000000010000006C
:1054D0000000000004000000FFFFFFFF000E0E4070
:1054E000000400000B0000000100000000000000AC
:1054F00004000000FFFFFFFF00100E40001000003E
:105500000C0000000100000000000000040000008A
:10551000FFFFFFFF00100E40002000000C00000005
:10552000010000000000000004000000FFFFFFFF7A
:1055300000100E40000000040C00000004000000F9
:105540000000000004000000FFFFFFFF000E0E40FF
:10555000004000000B0000000400000000000000FC
:1055600004000000FFFFFFFF000E0E40008000005F
:105570000B00000004000000000000000400000018
:10558000FFFFFFFF00140E40010000000E000000AE
:10559000040000000000000004000000FFFFFFFF07
:1055A00000140E40020000000E0000000400000085
:1055B0000000000004000000FFFFFFFF00140E4089
:1055C000040000000E0000000400000000000000C5
:1055D00004000000FFFFFFFF00140E400800000061
:1055E0000E000000040000000000000004000000A5
:1055F000FFFFFFFF00140E40400000000E000000FF
:10560000040000000000000004000000FFFFFFFF96
:1056100000140E40000200000E0000000400000014
:105620000000000004000000FFFFFFFF000E0E401E
:10563000800000000B0000000400000000000000DB
:1056400004000000FFFFFFFF00140E4000040000F4
:105650000E00000004000000000000000400000034
:10566000FFFFFFFF00120E40020000000D000000CF
:10567000040000000000000004000000FFFFFFFF26
:1056800000120E40040000000D00000004000000A5
:105690000000000004000000FFFFFFFF00120E40AA
:1056A000080000000D0000000400000000000000E1
:1056B00004000000FFFFFFFF00120E40100000007A
:1056C0000D000000040000000000000004000000C5
:1056D000FFFFFFFF00120E40200000000D00000041
:1056E000040000000000000004000000FFFFFFFFB6
:1056F00000120E40400000000D00000004000000F9
:105700000000000004000000FFFFFFFF00120E4039
:10571000800000000D0000000400000000000000F8
:1057200004000000FFFFFFFF00120E400001000018
:105730000D00000004000000000000000400000054
:10574000FFFFFFFF00120E40000200000D000000EE
:10575000040000000000000004000000FFFFFFFF45
:10576000000E0E40000008000B00000004000000C6
:105770000000000004000000FFFFFFFF000E0E40CD
:10578000000010000B0000000400000000000000FA
:1057900004000000FFFFFFFF00120E4000000800A1
:1057A0000D000000040000000000000004000000E4
:1057B000FFFFFFFF00120E40000004000D0000007C
:1057C000040000000000000004000000FFFFFFFFD5
:1057D00000120E40000002000D0000000400000056
:1057E0000000000004000000FFFFFFFF00120E4059
:1057F000000001000D000000040000000000000097
:1058000004000000FFFFFFFF00120E4000800000B8
:105810000D00000004000000000000000400000073
:10582000FFFFFFFF00120E40004000000D000000CF
:10583000040000000000000004000000FFFFFFFF64
:1058400000120E40002000000D00000004000000C7
:105850000000000004000000FFFFFFFF00120E40E8
:10586000001000000D000000040000000000000017
:1058700004000000FFFFFFFF00100E4000002000AA
:105880000C00000004000000000000000400000004
:10589000FFFFFFFF00100E40004000000C00000062
:1058A000040000000000000004000000FFFFFFFFF4
:1058B000000E0E40000001000B000000030000007D
:1058C00000000000020000000007FFFF000E0E4075
:1058D000000000010B0000000300000000000000B9
:1058E000020000000106FFFF000E0E4000008000D5
:1058F0000B00000003000000000000000200000098
:105900000205FFFF000E0E40000040000B000000EB
:105910000300000000000000020000000304FFFF7D
:10592000000E0E40400000000B00000003000000CD
:1059300000000000020000000403FF05000E0E40FE
:10594000100000000B000000030000000000000039
:10595000020000000502FFFF000E0E4008000000DC
:105960000B00000003000000000000000200000027
:105970000601FF03000E0E40040000000B000000B3
:105980000300000000000000020000000700FF020A
:1059900000100E40000002000C0000000300000098
:1059A0000000000002000000080AFFFF00100E4087
:1059B000000004000C0000000300000000000000D4
:1059C00002000000090BFFFF00100E40000008005D
:1059D0000C000000030000000000000002000000B6
:1059E0000A0CFFFF00100E40000010000C00000029
:1059F0000300000000000000020000000B0DFFFF8C
:105A000000100E40008000000C00000003000000A9
:105A100000000000020000000C10FFFF00100E400C
:105A2000000001000C000000030000000000000066
:105A3000020000000D11FFFF000E0E4002000000EA
:105A40000B00000001000000000000000400000046
:105A50000EFFFFFF000E0E40010000000B000000D3
:105A60000100000000000000040000000FFFFFFF25
:105A7000000E0E40000002000B00000001000000BC
:105A80000000000004000000FFFFFFFF000E0E40BA
:105A9000000004000B0000000100000000000000F6
:105AA00004000000FFFFFFFF00120E400000004056
:105AB0000D000000040000000000000004000000D1
:105AC000FFFFFFFF000E0E40000020000B00000053
:105AD000040000000000000004000000FFFFFFFFC2
